{
    "contractName": "CrowdFunding",
    "abi": [
        {
            "inputs": [
                {
                    "internalType": "uint256",
                    "name": "_deadline",
                    "type": "uint256"
                }
            ],
            "stateMutability": "nonpayable",
            "type": "constructor"
        },
        {
            "anonymous": false,
            "inputs": [
                {
                    "indexed": false,
                    "internalType": "uint256",
                    "name": "id",
                    "type": "uint256"
                }
            ],
            "name": "CampaignCreated",
            "type": "event"
        },
        {
            "anonymous": false,
            "inputs": [
                {
                    "indexed": false,
                    "internalType": "uint256",
                    "name": "amount",
                    "type": "uint256"
                },
                {
                    "indexed": false,
                    "internalType": "uint256",
                    "name": "when",
                    "type": "uint256"
                }
            ],
            "name": "DonationRecieved",
            "type": "event"
        },
        {
            "anonymous": false,
            "inputs": [
                {
                    "indexed": false,
                    "internalType": "uint256",
                    "name": "amount",
                    "type": "uint256"
                },
                {
                    "indexed": false,
                    "internalType": "uint256",
                    "name": "when",
                    "type": "uint256"
                }
            ],
            "name": "Withdrawal",
            "type": "event"
        },
        {
            "inputs": [
                {
                    "internalType": "uint256",
                    "name": "_campaignID",
                    "type": "uint256"
                }
            ],
            "name": "ApproveCampaign",
            "outputs": [],
            "stateMutability": "nonpayable",
            "type": "function"
        },
        {
            "inputs": [
                {
                    "internalType": "uint256",
                    "name": "",
                    "type": "uint256"
                }
            ],
            "name": "Campaigns",
            "outputs": [
                {
                    "internalType": "uint256",
                    "name": "campaignID",
                    "type": "uint256"
                },
                {
                    "internalType": "uint256",
                    "name": "noOfDonations",
                    "type": "uint256"
                },
                {
                    "internalType": "uint256",
                    "name": "totalAmountDonated",
                    "type": "uint256"
                },
                {
                    "internalType": "uint256",
                    "name": "campaignTarget",
                    "type": "uint256"
                },
                {
                    "internalType": "bool",
                    "name": "isApproved",
                    "type": "bool"
                },
                {
                    "internalType": "string",
                    "name": "campaignName",
                    "type": "string"
                },
                {
                    "internalType": "address",
                    "name": "owner",
                    "type": "address"
                }
            ],
            "stateMutability": "view",
            "type": "function"
        },
        {
            "inputs": [
                {
                    "internalType": "uint256",
                    "name": "_campaignID",
                    "type": "uint256"
                },
                {
                    "internalType": "address",
                    "name": "_Donor",
                    "type": "address"
                }
            ],
            "name": "Donate",
            "outputs": [],
            "stateMutability": "payable",
            "type": "function"
        },
        {
            "inputs": [],
            "name": "admin",
            "outputs": [
                {
                    "internalType": "address",
                    "name": "",
                    "type": "address"
                }
            ],
            "stateMutability": "view",
            "type": "function"
        },
        {
            "inputs": [],
            "name": "completeAt",
            "outputs": [
                {
                    "internalType": "uint256",
                    "name": "",
                    "type": "uint256"
                }
            ],
            "stateMutability": "view",
            "type": "function"
        },
        {
            "inputs": [
                {
                    "internalType": "string",
                    "name": "_campaignName",
                    "type": "string"
                },
                {
                    "internalType": "address",
                    "name": "_campaignOwner",
                    "type": "address"
                },
                {
                    "internalType": "uint256",
                    "name": "_campaignTarget",
                    "type": "uint256"
                }
            ],
            "name": "createCampaign",
            "outputs": [],
            "stateMutability": "nonpayable",
            "type": "function"
        },
        {
            "inputs": [],
            "name": "deadline",
            "outputs": [
                {
                    "internalType": "uint256",
                    "name": "",
                    "type": "uint256"
                }
            ],
            "stateMutability": "view",
            "type": "function"
        },
        {
            "inputs": [
                {
                    "internalType": "address",
                    "name": "",
                    "type": "address"
                }
            ],
            "name": "donors",
            "outputs": [
                {
                    "internalType": "uint256",
                    "name": "",
                    "type": "uint256"
                }
            ],
            "stateMutability": "view",
            "type": "function"
        },
        {
            "inputs": [],
            "name": "noOfCampaigns",
            "outputs": [
                {
                    "internalType": "uint256",
                    "name": "",
                    "type": "uint256"
                }
            ],
            "stateMutability": "view",
            "type": "function"
        },
        {
            "inputs": [],
            "name": "noOfDonators",
            "outputs": [
                {
                    "internalType": "uint256",
                    "name": "",
                    "type": "uint256"
                }
            ],
            "stateMutability": "view",
            "type": "function"
        },
        {
            "inputs": [],
            "name": "raisedAmount",
            "outputs": [
                {
                    "internalType": "uint256",
                    "name": "",
                    "type": "uint256"
                }
            ],
            "stateMutability": "view",
            "type": "function"
        },
        {
            "inputs": [],
            "name": "returnAllProjects",
            "outputs": [
                {
                    "components": [
                        {
                            "internalType": "uint256",
                            "name": "campaignID",
                            "type": "uint256"
                        },
                        {
                            "internalType": "uint256",
                            "name": "noOfDonations",
                            "type": "uint256"
                        },
                        {
                            "internalType": "uint256",
                            "name": "totalAmountDonated",
                            "type": "uint256"
                        },
                        {
                            "internalType": "uint256",
                            "name": "campaignTarget",
                            "type": "uint256"
                        },
                        {
                            "internalType": "bool",
                            "name": "isApproved",
                            "type": "bool"
                        },
                        {
                            "internalType": "string",
                            "name": "campaignName",
                            "type": "string"
                        },
                        {
                            "internalType": "address",
                            "name": "owner",
                            "type": "address"
                        }
                    ],
                    "internalType": "struct CrowdFunding.Campaign[]",
                    "name": "",
                    "type": "tuple[]"
                }
            ],
            "stateMutability": "view",
            "type": "function"
        },
        {
            "inputs": [],
            "name": "state",
            "outputs": [
                {
                    "internalType": "enum CrowdFunding.State",
                    "name": "",
                    "type": "uint8"
                }
            ],
            "stateMutability": "view",
            "type": "function"
        },
        {
            "inputs": [],
            "name": "targetContribution",
            "outputs": [
                {
                    "internalType": "uint256",
                    "name": "",
                    "type": "uint256"
                }
            ],
            "stateMutability": "view",
            "type": "function"
        },
        {
            "inputs": [],
            "name": "targetDonation",
            "outputs": [
                {
                    "internalType": "uint256",
                    "name": "",
                    "type": "uint256"
                }
            ],
            "stateMutability": "view",
            "type": "function"
        },
        {
            "inputs": [],
            "name": "totalDonation",
            "outputs": [
                {
                    "internalType": "uint256",
                    "name": "",
                    "type": "uint256"
                }
            ],
            "stateMutability": "view",
            "type": "function"
        },
        {
            "inputs": [
                {
                    "internalType": "uint256",
                    "name": "_campaignID",
                    "type": "uint256"
                },
                {
                    "internalType": "address",
                    "name": "_campaignOwner",
                    "type": "address"
                }
            ],
            "name": "withdraw",
            "outputs": [],
            "stateMutability": "nonpayable",
            "type": "function"
        }
    ],
    "bytecode": "608060405260016003556009805460ff1916905534801561001f57600080fd5b5060405161135038038061135083398101604081905261003e91610058565b600280546001600160a01b03191633179055600455610071565b60006020828403121561006a57600080fd5b5051919050565b6112d0806100806000396000f3fe6080604052600436106100fd5760003560e01c806385b6e28e11610095578063ca0cdea811610064578063ca0cdea814610277578063da451895146102a4578063ee2ac05f146102b7578063f851a440146102cd578063fb2b599d1461030557600080fd5b806385b6e28e14610202578063b82c86d614610224578063c19d93fb1461023a578063c59ee1dc1461026157600080fd5b80632d07c175116100d15780632d07c175146101795780634013be10146101995780634c4cea5a146101cc57806370cde4b5146101e257600080fd5b8062f714ce1461010257806308a87b791461012457806317818e591461014d57806329dcb0cf14610163575b600080fd5b34801561010e57600080fd5b5061012261011d366004610d0f565b61031b565b005b34801561013057600080fd5b5061013a60055481565b6040519081526020015b60405180910390f35b34801561015957600080fd5b5061013a60005481565b34801561016f57600080fd5b5061013a60045481565b34801561018557600080fd5b50610122610194366004610d3b565b6105b4565b3480156101a557600080fd5b506101b96101b4366004610d3b565b61062c565b6040516101449796959493929190610d9a565b3480156101d857600080fd5b5061013a60065481565b3480156101ee57600080fd5b506101226101fd366004610dff565b610700565b34801561020e57600080fd5b506102176108f9565b6040516101449190610eca565b34801561023057600080fd5b5061013a600c5481565b34801561024657600080fd5b506009546102549060ff1681565b6040516101449190610f98565b34801561026d57600080fd5b5061013a60075481565b34801561028357600080fd5b5061013a610292366004610fc0565b600e6020526000908152604090205481565b6101226102b2366004610d0f565b610a43565b3480156102c357600080fd5b5061013a60015481565b3480156102d957600080fd5b506002546102ed906001600160a01b031681565b6040516001600160a01b039091168152602001610144565b34801561031157600080fd5b5061013a60085481565b6000828152600d60209081526040808320815160e0810183528154815260018201549381019390935260028101549183019190915260038101546060830152600481015460ff161515608083015260058101805460a08401919061037e90610fe2565b80601f01602080910402602001604051908101604052809291908181526020018280546103aa90610fe2565b80156103f75780601f106103cc576101008083540402835291602001916103f7565b820191906000526020600020905b8154815290600101906020018083116103da57829003601f168201915b5050509183525050600691909101546001600160a01b0390811660209092019190915260c08201519192508381169082161461047a5760405162461bcd60e51b815260206004820152601760248201527f4f6e6c79206f776e65722063616e20776974686472617700000000000000000060448201526064015b60405180910390fd5b6001600160a01b0381166104c85760405162461bcd60e51b8152602060048201526015602482015274696e76616c6964206f776e6572206164647265737360581b6044820152606401610471565b60045442116105105760405162461bcd60e51b81526020600482015260146024820152731dda5d1a191c985dc81b9bdd081c995858da195960621b6044820152606401610471565b604082015160006064610524836007611032565b61052e919061104f565b905061053a8183611071565b6040519092506001600160a01b0384169083156108fc029084906000818181858888f19350505050158015610573573d6000803e3d6000fd5b50604080518381524260208201527fbf2ed60bd5b5965d685680c01195c9514e4382e28e3a5a2d2d5244bf59411b93910160405180910390a1505050505050565b6002546001600160a01b0316331461060e5760405162461bcd60e51b815260206004820152601f60248201527f4f6e6c792061646d696e2063616e20617070726f76652063616d706169676e006044820152606401610471565b6000908152600d60205260409020600401805460ff19166001179055565b600d60205260009081526040902080546001820154600283015460038401546004850154600586018054959694959394929360ff909216929161066e90610fe2565b80601f016020809104026020016040519081016040528092919081815260200182805461069a90610fe2565b80156106e75780601f106106bc576101008083540402835291602001916106e7565b820191906000526020600020905b8154815290600101906020018083116106ca57829003601f168201915b505050600690930154919250506001600160a01b031687565b6003546000818152600d602052604090208181556005810161072286826110d3565b506003810183815560006001808401828155600285018381556006860180546001600160a01b0319166001600160a01b038b16179055600a8054938401815590935284547fc65a7bb8d6351c1cf70c95a316cc6a92839c986682d98bc35f958f4883f9d2a8600790930292830190815590547fc65a7bb8d6351c1cf70c95a316cc6a92839c986682d98bc35f958f4883f9d2a983015591547fc65a7bb8d6351c1cf70c95a316cc6a92839c986682d98bc35f958f4883f9d2aa82015591547fc65a7bb8d6351c1cf70c95a316cc6a92839c986682d98bc35f958f4883f9d2ab83015560048301547fc65a7bb8d6351c1cf70c95a316cc6a92839c986682d98bc35f958f4883f9d2ac8301805460ff191660ff909216151591909117905582917fc65a7bb8d6351c1cf70c95a316cc6a92839c986682d98bc35f958f4883f9d2ad016108706005840182611193565b50600691820154910180546001600160a01b0319166001600160a01b039092169190911790556000805490806108a58361126e565b9091555050600380549060006108ba8361126e565b90915550506040518281527fbc0a5edd152fa5b886dcae82c5c109d113708653b4b9c0224549ccdf715af94e9060200160405180910390a15050505050565b6060600a805480602002602001604051908101604052809291908181526020016000905b82821015610a3a57838290600052602060002090600702016040518060e0016040529081600082015481526020016001820154815260200160028201548152602001600382015481526020016004820160009054906101000a900460ff1615151515815260200160058201805461099390610fe2565b80601f01602080910402602001604051908101604052809291908181526020018280546109bf90610fe2565b8015610a0c5780601f106109e157610100808354040283529160200191610a0c565b820191906000526020600020905b8154815290600101906020018083116109ef57829003601f168201915b5050509183525050600691909101546001600160a01b0316602091820152908252600192909201910161091d565b50505050905090565b60008060095460ff166002811115610a5d57610a5d610f82565b14610a9a5760405162461bcd60e51b815260206004820152600d60248201526c496e76616c696420737461746560981b6044820152606401610471565b6004544210610ae35760405162461bcd60e51b8152602060048201526015602482015274446561646c696e652068617320706173736564202160581b6044820152606401610471565b6000838152600d6020526040902034610b3e5760405162461bcd60e51b815260206004820152601b60248201527f506c6561736520646f6e61746520746f207468697320636175736500000000006044820152606401610471565b600481015460ff161515600114610ba95760405162461bcd60e51b815260206004820152602960248201527f596f752063616e206f6e6c7920646f6e61746520746f20617070726f7665642060448201526843616d706169676e7360b81b6064820152608401610471565b60643411610c0a5760405162461bcd60e51b815260206004820152602860248201527f706c6561736520796f752063616e7420646f6e617465206c657373207468616e604482015267203130302077656960c01b6064820152608401610471565b6001600160a01b0383166000908152600e60205260408120549003610c3f5760088054906000610c398361126e565b91905055505b6001600160a01b0383166000908152600e602052604081208054349290610c67908490611287565b9091555050600181018054906000610c7e8361126e565b919050555034816002016000828254610c979190611287565b925050819055503460016000828254610cb09190611287565b9091555050604080513481524260208201527ffd952a8bfbd2c859aad4950c8e6cd63c5219154823b4ad8e2e829122a5f9866e910160405180910390a150505050565b80356001600160a01b0381168114610d0a57600080fd5b919050565b60008060408385031215610d2257600080fd5b82359150610d3260208401610cf3565b90509250929050565b600060208284031215610d4d57600080fd5b5035919050565b6000815180845260005b81811015610d7a57602081850181015186830182015201610d5e565b506000602082860101526020601f19601f83011685010191505092915050565b878152866020820152856040820152846060820152831515608082015260e060a08201526000610dcd60e0830185610d54565b905060018060a01b03831660c083015298975050505050505050565b634e487b7160e01b600052604160045260246000fd5b600080600060608486031215610e1457600080fd5b833567ffffffffffffffff80821115610e2c57600080fd5b818601915086601f830112610e4057600080fd5b813581811115610e5257610e52610de9565b604051601f8201601f19908116603f01168101908382118183101715610e7a57610e7a610de9565b81604052828152896020848701011115610e9357600080fd5b826020860160208301376000602084830101528097505050505050610eba60208501610cf3565b9150604084013590509250925092565b60006020808301818452808551808352604092508286019150828160051b87010184880160005b83811015610f7457603f19898403018552815160e0815185528882015189860152878201518886015260608083015181870152506080808301511515818701525060a0808301518282880152610f4983880182610d54565b60c0948501516001600160a01b03169790940196909652505094870194925090860190600101610ef1565b509098975050505050505050565b634e487b7160e01b600052602160045260246000fd5b6020810160038310610fba57634e487b7160e01b600052602160045260246000fd5b91905290565b600060208284031215610fd257600080fd5b610fdb82610cf3565b9392505050565b600181811c90821680610ff657607f821691505b60208210810361101657634e487b7160e01b600052602260045260246000fd5b50919050565b634e487b7160e01b600052601160045260246000fd5b80820281158282048414176110495761104961101c565b92915050565b60008261106c57634e487b7160e01b600052601260045260246000fd5b500490565b818103818111156110495761104961101c565b601f8211156110ce57600081815260208120601f850160051c810160208610156110ab5750805b601f850160051c820191505b818110156110ca578281556001016110b7565b5050505b505050565b815167ffffffffffffffff8111156110ed576110ed610de9565b611101816110fb8454610fe2565b84611084565b602080601f831160018114611136576000841561111e5750858301515b600019600386901b1c1916600185901b1785556110ca565b600085815260208120601f198616915b8281101561116557888601518255948401946001909101908401611146565b50858210156111835787850151600019600388901b60f8161c191681555b5050505050600190811b01905550565b81810361119e575050565b6111a88254610fe2565b67ffffffffffffffff8111156111c0576111c0610de9565b6111ce816110fb8454610fe2565b6000601f82116001811461120257600083156111ea5750848201545b600019600385901b1c1916600184901b178455611267565b600085815260209020601f19841690600086815260209020845b8381101561123c578286015482556001958601959091019060200161121c565b508583101561125a5781850154600019600388901b60f8161c191681555b50505060018360011b0184555b5050505050565b6000600182016112805761128061101c565b5060010190565b808201808211156110495761104961101c56fea2646970667358221220ec518b559dc031355adefa57e695947634fed679a8b00b8e91067d1b3ed5250664736f6c63430008110033",
    "sourcePath": "/home/oliviera/Desktop/Appex_Dapp/contracts/CrowdFund.sol",
    "compiler": {
        "name": "solc",
        "version": "0.8.17+commit.8df45f5f"
    },
    "functionHashes": {
        "ApproveCampaign(uint256)": "2d07c175",
        "Campaigns(uint256)": "4013be10",
        "Donate(uint256,address)": "da451895",
        "admin()": "f851a440",
        "completeAt()": "4c4cea5a",
        "createCampaign(string,address,uint256)": "70cde4b5",
        "deadline()": "29dcb0cf",
        "donors(address)": "ca0cdea8",
        "noOfCampaigns()": "17818e59",
        "noOfDonators()": "fb2b599d",
        "raisedAmount()": "c59ee1dc",
        "returnAllProjects()": "85b6e28e",
        "state()": "c19d93fb",
        "targetContribution()": "b82c86d6",
        "targetDonation()": "08a87b79",
        "totalDonation()": "ee2ac05f",
        "withdraw(uint256,address)": "00f714ce"
    },
    "gasEstimates": {
        "creation": {
            "codeDepositCost": "963200",
            "executionCost": "infinite",
            "totalCost": "infinite"
        },
        "external": {
            "ApproveCampaign(uint256)": "26680",
            "Campaigns(uint256)": "infinite",
            "Donate(uint256,address)": "infinite",
            "admin()": "2425",
            "completeAt()": "2351",
            "createCampaign(string,address,uint256)": "infinite",
            "deadline()": "2374",
            "donors(address)": "2530",
            "noOfCampaigns()": "2352",
            "noOfDonators()": "2394",
            "raisedAmount()": "2373",
            "returnAllProjects()": "infinite",
            "state()": "2418",
            "targetContribution()": "2329",
            "targetDonation()": "2330",
            "totalDonation()": "2350",
            "withdraw(uint256,address)": "infinite"
        },
        "internal": {
            "checkFundingCompleteOrExpire()": "infinite"
        }
    }
}